:020000040800F2
:100000007075002061220008BD210008C921000888
:10001000CF210008D5210008DB21000800000000E6
:10002000000000000000000000000000E1210008C6
:10003000ED21000800000000E50100081935000866
:10004000A5220008A5220008A5220008A522000874
:10005000A5220008A5220008A5220008A522000864
:10006000A5220008A5220008A5220008A522000854
:10007000A5220008A5220008A5220008A522000844
:10008000A5220008A5220008A5220008A522000834
:10009000A5220008A5220008A5220008A522000824
:1000A000A5220008A5220008A5220008A522000814
:1000B000A5220008A5220008A5220008A522000804
:1000C000A5220008A5220008A5220008A5220008F4
:1000D000A5220008A5220008A5220008A5220008E4
:1000E000A5220008A5220008A5220008A5220008D4
:1000F000A5220008A5220008A5220008A5220008C4
:10010000A5220008A5220008A5220008A5220008B3
:10011000A5220008A5220008A5220008A5220008A3
:10012000A5220008A5220008A5220008A522000893
:1001300000000000000000000000000000000000BF
:1001400000000000000000000000000000000000AF
:10015000000000000000000000000000000000009F
:10016000000000000000000000000000000000008F
:10017000000000000000000000000000000000007F
:10018000000000000000000000000000000000006F
:10019000000000000000000000000000000000005F
:1001A000000000000000000000000000000000004F
:1001B000000000000000000000000000000000003F
:1001C000000000000000000000000000000000002F
:1001D000000000000000000000000000000000001F
:0401E0005FF8E0F1F3
:1001E400EFF3098020B120E9F00F0749096808609E
:1001F400054806490A6802601068B0E8F00F80F309
:1002040009884EF0040E70474C360020503600200A
:1002140080B400AF20231846BD4680BC704780B42C
:1002240083B000AF78607B6800221A6000BF0C378F
:10023400BD4680BC704780B483B000AF786039603D
:100244007B681B6801213A6801FA02F21A437B6851
:100254001A6000BF0C37BD4680BC704780B483B0C1
:1002640000AF786039607B681B6801213A6801FA45
:1002740002F2D2431A407B681A6000BF0C37BD46B5
:1002840080BC704780B582B000AF78607B681B6823
:10029400DBB2002B05D07B681B68DBB2194AD35C48
:1002A4002BE07B681B6803F47F43002B07D07B683B
:1002B4001B681B0ADBB2134AD35C08331DE07B685E
:1002C4001B6803F47F03002B07D07B681B681B0C9F
:1002D400DBB20C4AD35C10330FE07B681B6803F07D
:1002E4007F43002B06D07B681B681B0E054AD35C3A
:1002F400183302E0FFF78CFF034618460837BD4663
:1003040080BD00BFEC3C000880B584B000AFF8604D
:10031400B9607A60FB680121184600F085F8FB6833
:100324007A685A617B68002B03D1FB68BA681A614A
:1003340006E0BA687B689A4228BF1A46FB681A61CD
:1003440000BF1037BD4680BD80B586B002AF78606F
:1003540039600023FB6003F035F9B8607B681B69E2
:10036400002B0AD07B681B695A1E7B681A61B86827
:1003740003F038F90023FB6011E078680A4B196830
:100384003B6800930123002200F060F8B86803F092
:1003940029F901F0F3FB044B1B685B6CFB60FB6801
:1003A40018461037BD4680BD4C36002080B584B059
:1003B40000AF786003F006F9F8607B68184600F037
:1003C400D8F80346002B12D07B680022002118467F
:1003D40000F06FF8B860BB6893F82420114B1B68D9
:1003E40093F824309A4215D201F0C8FB12E07B68DE
:1003F4001B695A1C7B681A617B685B69002B09D0F6
:100404007B681A697B685B699A4203D97B685A697D
:100414007B681A61F86803F0E5F800BF1037BD4641
:1004240080BD00BF4C36002080B582B000AF78603C
:100434000B46FB707B68FA781A707B6804331846A5
:1004440000F0A7FA00BF0837BD4680BD80B586B06E
:1004540000AFF860B9607A603B6003F0B3F878618C
:10046400BB681A6A3B681B041A43BB681A62BB6800
:10047400FA68DA63BB687A681A64BB6800225A6453
:10048400B86801F0CBFBFB681A1DBB680C33194636
:10049400104600F0CDFA3B6A002B03D0396AB868E5
:1004A40000F020FA786903F09DF800BF1837BD46C4
:1004B40080BD80B588B000AFF860B9607A60002371
:1004C400FB6103F07FF8B861FB680433184600F061
:1004D400CCFA78617B69002B1BD07B690C3BFB61F8
:1004E400FB690022DA63FB69BA681A64FB697A68FB
:1004F4005A64FB691B6A23F47F02FB691A62FB6975
:100504005B69002B02D0F86900F006FAF86901F083
:1005140061FBB86903F066F8FB6918462037BD46ED
:1005240080BD80B586B000AFF860B9607A6003F032
:1005340049F87861FB68DB6B1A1DFB680C331946BC
:10054400104600F0B2FAFB680022DA63FB68BA686E
:100554001A64FB687A685A64FB681B6A23F47F0296
:10056400FB681A62786903F03DF800BF1837BD468E
:1005740080BD80B584B000AF786003F023F8F860E4
:100584007B680433184600F016FAB860F86803F084
:1005940029F8BB6818461037BD4680BD80B584B0C5
:1005A40000AF786039606FF00103FB607B68002B5B
:1005B40002D03B68002B09D1134800F0FFFB1DE07B
:1005C4007B6801337B603B6801333B607B681A784E
:1005D4003B681B789A4203D17B681B78002BEFD1D0
:1005E4007B681B78002B06D13B681B78002B02D15B
:1005F4000023FB6002E04FF0FF33FB60FB6818460A
:100604001037BD4680BD00BF2C36000880B586B0CB
:1006140000AF786039607B68002B06D1274B4C22F1
:100624002749284800F0CAFBFEE73B68002B06D1A7
:10063400254B4D222249234800F0C0FBFEE700234E
:100644007B6100233B613B681B78FB733B681B7831
:100654002D2B03D03B681B782B2B1DD13B6801331A
:100664003B6019E03B681B782F2B03D93B681B7850
:10067400392B03D94FF0FF337B6111E03A691346FC
:100684009B0013445B001A463B681B78303B1344C1
:100694003B613B6801333B603B681B78002BE1D135
:1006A400FB7B2D2B02D13B695B423B617B683A6942
:1006B4001A607B6918461837BD4680BDDC360008D1
:1006C40068360008B4360008E436000880B582B005
:1006D40000AF00237B6001F0CDFB1B21034800F039
:1006E40007F87B6818460837BD4680BDE836000821
:1006F40080B584B000AF786039600023FB603B684C
:100704009BB21946786801F0C1FBFB6818461037A4
:10071400BD4680BD80B582B000AF78600021074837
:10072400FFF712FE00210648FFF70EFE054800F011
:100734000BF80348FFF73AFEF0E700BF94010020EE
:100744007C0100207001002080B584B000AF786087
:100754007B685B68FB6031E0FB68BB60BB681B695E
:10076400002B08D0BB681B695A1EBB681A61BB68A2
:100774001B69002B1FD1BB68022283F82020BB68B1
:100784005B69BA68926910469847BB68012283F88E
:100794002020BB68DB68002B04D0BB68DA68BB6828
:1007A4001A6108E0BB681946786800F07EF9BB68F6
:1007B400032283F82020FB685B68FB607B68FA688F
:1007C4009A42C9D100BF00BF1037BD4680BD0000AA
:1007D40080B500AF084800F0DCF8084800F0D9F80C
:1007E400012201210648FFF78FFD00220021054860
:1007F400FFF78AFD00BF80BD640100207001002066
:100804007C0100209401002080B584B004AF002353
:1008140003934FF480630293064B019301230093E7
:100824000023054A0549064801F05EF800BFBD46AD
:1008340080BD00BF2002002019070008AC01002081
:100844000437000880B582B000AF02F0BBFE7860C8
:100854000648FFF779FF786802F0C4FE0448FFF702
:10086400A5FD00BF0837BD4680BD00BF6401002060
:100874009401002080B483B000AF7860044B1A6800
:100884007B681A6000BF0C37BD4680BC704700BF50
:10089400EC24002080B584B000AF786002F092FEB2
:1008A400F8600A4B1B687968184600F01BF8074B80
:1008B4001B68184601F0B2F9F86802F093FE01F0E3
:1008C4005DF900BF1037BD4680BD00BF4C36002027
:1008D40080B500AF024800F05CF800BF80BD00BFE7
:1008E4002012002080B582B000AF786039607B6848
:1008F4003A685A617B6818331946064800F098F83C
:100904007B681B6A43F004027B681A6200BF0837E5
:10091400BD4680BD2012002080B582B000AF786053
:100924007B6818331946064800F0BFF87B681B6AD9
:1009340023F004027B681A6200BF0837BD4680BDFD
:100944002012002080B584B000AF78600023FB60E3
:1009540007F10C031846FFF78DFFFB68194604489E
:1009640000F02CFA002318461037BD4680BD00BFA6
:100974001037000880B483B000AF78607B687A6871
:100984005A607B687A681A6000BF0C37BD4680BC29
:10099400704780B483B000AF78607A687B685A602F
:1009A4007A687B681A607B6800229A6000BF0C3703
:1009B400BD4680BC704780B483B000AF78607B686C
:1009C4009B6818460C37BD4680BC704780B485B020
:1009D40000AF78600023FB607B689B68002B02D02B
:1009E4007B685B68FB60FB6818461437BD4680BCB7
:1009F400704780B483B000AF786039607B685B680F
:100A04001A683B681A607B685A683B685A607B685E
:100A14005B683A681A607B683A685A607B689B68CE
:100A24005A1C7B689A6000BF0C37BD4680BC704777
:100A340080B483B000AF786039607A683B685A60EC
:100A44007B681A683B681A607B681B683A685A605E
:100A54007B683A681A607B689B685A1C7B689A605A
:100A640000BF0C37BD4680BC704780B485B000AF72
:100A740078600023FB607B689B68002B0FD07B6849
:100A84005B68FB60FB685B687A681A60FB685A689D
:100A94007B685A607B689B685A1E7B689A60FB6817
:100AA40018461437BD4680BC704780B483B000AF8D
:100AB400786039603B681B683A6852685A603B68E2
:100AC4005B683A6812681A607B689B685A1E7B6888
:100AD4009A6000BF0C37BD4680BC704780B500AF3C
:100AE40000F0EAFFFFF7F4FE00F09EFDFFF770FE52
:100AF40000F076FD00F052FD00BF80BD80B584B0EB
:100B040000AF02F05FFD7860444B5B68FB601DE062
:100B1400FB68183B3B603B685B695A1E3B685A6143
:100B24003B685B69002B0ED13B68DB6B002B04D068
:100B3400012200213868FFF7F4FC3868FFF7ECFE67
:100B4400386801F047F8FB685B68FB60FB68334A70
:100B54009342DDD1324B1B689A6A013A9A629B6ACE
:100B6400002B34D12E4B1B6893F824301A461346BD
:100B74005B0013449B002B4A13441846FFF71BFFEA
:100B84000346002B23D0264B1B6893F824301A46C7
:100B940013465B0013449B00224A13441846FFF794
:100BA40064FF1F4B1B6893F824301A4613465B00FE
:100BB40013449B001B4A1A44194B1B680C331946F7
:100BC4001046FFF735FF164B1B680A229A62164B34
:100BD4001B680133144A1360144B1B680133134A16
:100BE4001360786802F0FEFCFFF72CFE0023FB7212
:100BF4000E4B1B68632B03D900F066FD0346FB72A2
:100C04000A4B1B68632B02D9FB7A002B01D000F03E
:100C1400B5FF00BF1037BD4680BD00BF20120020C5
:100C24004C36002060360020E8240020EC2400200C
:100C340080B584B000AF78600023FB607B68002B34
:100C44000BD14FF0FF33FB600BE07B681B78184639
:100C540000F0A6F87B6801337B607B681B78002B6F
:100C6400F3D1FB6818461037BD4680BD80B584B00B
:100C740000AF0346FB710023FB600D2000F090F8E9
:100C84000A2000F08DF8FB79002B02D0FB79012BB0
:100C940005D9094B1B681846FFF7CAFF06E0FB7924
:100CA400054A52F823301846FFF7C2FFFB6818467E
:100CB4001037BD4680BD00BF0000002080B588B05D
:100CC40000AF786039600023BB6100237B6100239F
:100CD400BB6007F10C0300221A609A800023FB77A3
:100CE4007B68002B05DA2D2000F05AF87B685B4204
:100CF4007B607A68224B83FB02139910D317C91ABD
:100D04000B469B000B445B00D11AFB7F5A1CFA77FD
:100D1400CAB207F120010B4403F8182C7B68184A67
:100D240082FB03129210DB17D31A7B607B68002BC3
:100D340002D0FB7F092BDCD9FB7F3A68D31A013B35
:100D44003B6002E0202000F02BF83B68002BF9DC2C
:100D54000DE0FB7F013BFB77FB7F07F1200213448F
:100D640013F8183C3033DBB2184600F019F8FB7F57
:100D7400002BEED1BB6918462037BD4680BD00BFAD
:100D84006766666680B582B000AF0023FB71FB1D09
:100D9400184601F0A7F8FB7918460837BD4680BD10
:100DA40080B582B000AF0346FB71FB1D184601F00D
:100DB40085F8FB7918460837BD4680BD0FB480B569
:100DC40086B000AF00237B6100233B6100237B607E
:100DD40000233B7200233B603B6A002B04D14FF09D
:100DE400FF337B617B696DE007F12403FB603B6AA1
:100DF4003B6160E03B691B78252B08D03B691B787D
:100E04001846FFF7CDFF3B6901333B6153E03B6973
:100E140001333B613B691B782F2B10D93B691B784D
:100E2400392B0CD83B685A1C3A603A69127807F19E
:100E340018010B4403F8142C3B6901333B613B68F4
:100E4400002B0CDD3B6807F118021344002203F861
:100E5400142C3A1D3B4611461846FFF7D7FB3B6955
:100E64001B78642B02D0732B0FD019E03B6901333C
:100E74003B61FB681A1DFA601B683A681146184604
:100E8400FFF71CFF00233B6011E03B6901333B612A
:100E9400FB681A1DFA601B681846FFF7C9FE06E0D6
:100EA4000120FFF7E3FE4FF0FF337B6100BF7B6956
:100EB400B3F1FF3F04D03B691B78002B9AD100E0CB
:100EC40000BF7B6918461837BD46BDE8804004B0B2
:100ED4007047000080B582B000AF78607B681B8BE0
:100EE400002B0DD00848FFF769FF7B681A687B6800
:100EF4001B8B591E88B279680883134400221A7028
:100F040000BF0837BD4680BD9037000880B582B069
:100F140000AF78600F48FFF751FF7B681B687A6861
:100F2400128B134400221A707B681B8B002B09D090
:100F3400786800F00DFB7B681B6800221A707B68E0
:100F440000221A830448FFF739FF00BF0837BD4663
:100F540080BD00BFA0370008A437000880B584B066
:100F640000AF78600023FB730E4BBB6011E0BB68DD
:100F74001B78002B0AD1F97BBB685A68BB689B6855
:100F84000948FFF71BFFFB7B0133FB73BB6814337A
:100F9400BB60BB68054A9342E9D100231846103769
:100FA400BD4680BD14000020B4370008F0000020C6
:100FB40080B582B000AF78600348FFF7FFFE0023DE
:100FC40018460837BD4680BDD837000880B582B0C2
:100FD40000AF78600348FFF7F1FE00231846083796
:100FE400BD4680BD0C38000880B584B000AF786081
:100FF4007B68002B06D1174B702217491748FFF75F
:10100400DDFEFEE70023FB737B68BB60BB685B8B84
:10101400002B03D11248FFF7D1FE15E00023FB7328
:101024000CE0F97BFB7BBA689B0013445B681A46AF
:101034000C48FFF7C3FEFB7B0133FB73FB7B9AB2C7
:10104400BB685B8B9A42ECD3002318461037BD462D
:1010540080BD00BF283800082C38000888380008F4
:10106400A4380008BC38000880B586B000AF7860AA
:101074007B68002B06D1184B872218491848FFF7C4
:101084009DFEFEE70023FB750023FB607B683B614C
:101094003B695B8B012B03D01248FFF78FFE16E0F0
:1010A4003B695A6807F10C0311461846FFF7AEFA7C
:1010B400F97DFB7D3A699B0013445B681A460A4834
:1010C400FFF77CFEFB6819460848FFF777FE00230C
:1010D40018461837BD4680BD283800082C3800084B
:1010E40088380008E438000810390008203900085E
:1010F40080B582B000AF78600348FFF75FFE00233D
:1011040018460837BD4680BD4039000880B582B016
:1011140000AF78600448FFF751FE00F049F800235F
:1011240018460837BD4680BD6439000880B586B0CE
:1011340004AF00237B60154B154A1A60134B4FF420
:1011440000729A801149134800F038F878607B687F
:10115400002B04D034211048FFF730FEFEE70023B3
:1011640003934FF4806302930C4B01931E2300936B
:1011740000230B4A0B490C4800F0B6FB0B48FFF761
:101184001DFE00BF0837BD4680BD00BFE022002021
:10119400E8220020A02200208C390008A0120020A0
:1011A400791200082C120020B8390008C43900084C
:1011B40080B500AF02F025FA00BF80BD80B485B0D1
:1011C40000AF786039600023FB6000237B813B68BB
:1011D4001B68002B03D14FF0FF33FB603EE03B68FC
:1011E4001A687B681A603B689A887B689A837B6874
:1011F40000221A627B68002283F824207B68002284
:101204001A837B6800225A8300237B8110E07B6869
:1012140019687B895A1C13469B019B1A5B007A89C7
:1012240019447B680A3243F822107B8901337B819D
:101234007B89012BEBD97B680B4A5A630B4A0A4B17
:10124400D31A5B101A460A4BA3FB02231B099AB25A
:101254007B681A877B68012283F83C20FB68184668
:101264001437BD4680BC704714000020F0000020F5
:10127400CDCCCCCC80B584B000AF78600D4BFB6096
:10128400FB68002B06D10C4B61220C490C48FFF77C
:1012940095FDFEE70B48FFF791FD0B48FFF78EFD28
:1012A400FFF770FD0346FB72FB7A1946F86800F0FD
:1012B4000DF8F5E7A0220020F0390008FC390008F9
:1012C400543A0008703A0008A43B000880B586B080
:1012D40000AF78600B46FB70FB78002B06D14B4BBC
:1012E40070224B494B48FFF769FDFEE70023FB756D
:1012F40000233B617B681B6A03F07F43002B04D10E
:101304001823FB7500233B611FE07B681B6A03F015
:101314007F427B681B6A9A4205D11023FB754FF00C
:101324007F433B6111E07B681B6A1B0C1B047A68DA
:10133400126A934204D10823FB75374B3B6104E0E6
:101344000023FB756FF0FF033B610023FB60334B0D
:10135400FB603EE0FB681B78012B37D1FB689A6881
:101364003B691A407B681B6A9A422FD1FB689B68D1
:10137400FA7DFF2101FA02F21340F978FA7D01FAAD
:1013840002F2934222D17B681B6AF978FA7D01FA52
:1013940002F21A437B681A620023FB70FB7D002B68
:1013A40009D0FB689B68FA7D083AFF2101FA02F232
:1013B4001340002B0AD1FB68DB68002B03D0FB68C9
:1013C400DB68786898477B6800221A62FB681433EC
:1013D400FB60FB68124A9342BCD1FB78002B11D00E
:1013E4007B6800221A627B681A687B681B8B591C15
:1013F40088B2796808831344FA781A70FB7818461F
:10140400FFF7CEFC00BF1837BD4680BDAC3B0008DB
:10141400FC390008543A00080000FFFF14000020C3
:10142400F000002080B584B000AF78600023FB603A
:101434000023BB600F4BBB6013E0BB681B78002B21
:101444000CD1BB685A687B681B6819461046FFF7C5
:10145400A5F80346002B01D1BB68FB60BB681433BD
:10146400BB60BB68044A9342E7D1FB681846103757
:10147400BD4680BD14000020F000002090B585B06A
:1014840000AF78600023FB817B6800225A8300232D
:10149400FB8108E0FB897A689B00134400225A60B0
:1014A400FB890133FB81FB89042BF3D90023FB81E6
:1014B40002E0FB890133FB817B681A68FB891344D2
:1014C4001B78202BF5D137E07B681A68FB8913441D
:1014D4001B78202B2DD17B681A68FB8901331344B8
:1014E4001B78202B25D07B681A68FB8901331344B1
:1014F4001B78002B1DD07B681A68FB8913440022DB
:101504001A707B685B8B042B0FD87B681968FB8986
:101514005A1C7B685B8B581C84B2786844830A44E9
:1015240079689B000B445A6003E005210748FFF7E4
:1015340045FCFB890133FB817B681B8BFA899A424A
:10154400C2D300BF00BF1437BD4690BDB43B0008F2
:1015540080B584B000AF78600023FB607868FFF743
:101564008DFF7868FFF75EFFF860FB68002B06D1FB
:101574007B681B6819460848FFF720FC07E0FB68F6
:10158400DB68002B03D0FB68DB687868984700BFF2
:101594001037BD4680BD00BFD43B000880B584B081
:1015A40004AF002303934FF480630293074B01932A
:1015B4001F2300930023064A0649074800F094F9C4
:1015C400064B044A1A6000BFBD4680BD6425002056
:1015D40005160008F0240020F43B000854360020CF
:1015E40080B400AF044B00221A60044B00221A603E
:1015F40000BFBD4680BC7047E8240020EC240020D6
:1016040080B582B000AF786000F07EFAFFF7FCF896
:101614000A2001F085FFFFF759F8FFF787FD00F076
:1016240083FD00F08BFAFEE780B400AF074B084A55
:10163400DA60064B064A1A61064B074ADA60054B24
:10164400054A1A6100BFBD4680BC7047643500205E
:1016540070350020D8350020E435002080B588B0EE
:1016640004AFF860B9607A603B603A6ABB681A6696
:101674003B6A01331A46BB685A663A6ABB689A6683
:10168400BB680022DA66BB6800221A67BB687A6806
:10169400DA6502230393FB690293BB690193052373
:1016A40000930023064AB968F86800F01DF9B96888
:1016B400044800F037F800BF1037BD4680BD00BFB6
:1016C400B11800086435002080B584B000AFFF2352
:1016D400FB7301F077FFB86000F0A0F800F052F857
:1016E40078607B68002B10D00023FB730B4B1B68C6
:1016F4007A689A4207D00A4A7B681360084B1B68D1
:101704005A6D01325A6501F049FFB86801F06AFF69
:10171400FB7B18461037BD4680BD00BF4C36002009
:101724005036002080B483B000AF786039607B68A5
:10173400DA683B68DA607B6803F10C023B681A6183
:101744007B68DB683A680C325A603B6803F10C0230
:101754007B68DA6000BF0C37BD4680BC704780B43C
:1017640083B000AF78607B68DB687A6812695A607E
:101774007B681B697A68D2681A6000BF0C37BD4663
:1017840080BC704780B485B000AF0023FB60154B6C
:101794001B69BB6000237B6019E0BB680C3B9A6E3D
:1017A400013A9A66BB680C3B5A6E013A5A66FB686A
:1017B400002B06D0BB680C3B9A6EFB689B6E9A426A
:1017C40002D2BB680C3BFB60BB685B68BB60BB6858
:1017D400054A9342E1D1FB6818461437BD4680BCE4
:1017E400704700BF643500207035002080B582B09A
:1017F40000AF78607868FFF7B2FF7B681B6A43F03C
:1018040010027B681A6279680348FFF78BFF00BFF8
:101814000837BD4680BD00BFD835002080B584B0F0
:1018240000AF0023BB601E4B1B69FB6000237B6081
:101834002DE0FB680C3BBB60BB685B6E002B1ED1CC
:10184400FB685B687B60B868FFF789FFBB681B6A4D
:1018540023F01002BB681A62BB681A6EBB689A66F2
:10186400BB681A6EBB685A66BB68DA6EBB681A67D7
:10187400B9680C48FFF756FF7B68FB6007E0BB685C
:101884005B6E5A1EBB685A66FB685B68FB60FB684C
:10189400054A9342CDD100BF00BF1037BD4680BD7D
:1018A400D835002064350020E435002080B582B0AE
:1018B40000AF0C4B1B681B6A03F01003002BF8D11C
:1018C400084B1B68DB6D0020984701F07BFE7860B5
:1018D400044B1B681846FFF789FF786801F082FE05
:1018E400E7E700BF4C36002080B586B000AFF86053
:1018F400B9607A603B60BB687A6A5A60BB68BA6A4E
:101904009A60BA6A0021786A01F086FEBB6A23F005
:1019140003037A6A13447B617B69043B7B617B69C3
:101924004FF080721A607B69043B7B617A687B6943
:101934001A607B69043B7B617B6914221A607B69B2
:10194400043B7B617B6912221A607B69043B7B61E7
:101954007B6903221A607B69043B7B617B690222F9
:101964001A607B69043B7B617B6901221A607B6995
:10197400043B7B613A687B691A607B69043B7B6149
:101984007B6911221A607B69043B7B617B691022AD
:101994001A607B69043B7B617B6909221A607B695D
:1019A400043B7B617B6908221A607B69043B7B6191
:1019B4007B6907221A607B69043B7B617B69062291
:1019C4001A607B69043B7B617B6905221A607B6931
:1019D400043B7B617B6904221A60BB687A691A60E4
:1019E400BB6800225A61BB6897F8202083F8242042
:1019F400BB6800221A62BB680A229A62BB68002292
:101A0400DA62BB6800221A63BB6800225A63BB68AF
:101A1400002283F83820BB680022DA63BB68002206
:101A24001A64BB68FA681A65BB6800225A65BB6809
:101A3400FA6A9A65BB6818331846FEF79BFFBB68C1
:101A44000C331846FEF796FFBB689B6D002B02D142
:101A5400B86800F0BFF8084B1B68132B08D8064B76
:101A64001B685A1C04490A600449BA6841F82320D7
:101A740000BF1837BD4680BD30380020E037002055
:101A840080B582B000AF0A48FEF7FCFB78607A6844
:101A940013465B0013449B00064A13441846FEF7A2
:101AA40095FF38603B680C3B18460837BD4680BD3F
:101AB4005C3600206036002080B582B000AF0F4B4A
:101AC40000221A700E48FEF7AAFB00237B600CE08C
:101AD4007A6813465B0013449B000A4A1344184671
:101AE400FEF757FF7B6801337B607B681F2BEFDDBC
:101AF40000BF00BF0837BD4680BD00BF5836002078
:101B04005C3600206036002080B582B000AF01F062
:101B140059FD7860084B1B78FF2B05D0064B1B78CA
:101B24000133DAB2044B1A70786801F05BFD00BF30
:101B34000837BD4680BD00BF5836002080B582B04E
:101B440000AF01F03FFD78600B4B1B78002B0BD0EE
:101B5400094B1B78013BDAB2074B1A70064B1B7812
:101B6400002B01D100F00AF8786801F03BFD00BFBA
:101B74000837BD4680BD00BF5836002080B582B00E
:101B840000AF01F01FFD78600F4B1B78002B03D0D2
:101B9400786801F027FD14E0FFF772FF38600B4B03
:101BA4001B683A689A4209D0094A3B681360084B9B
:101BB4001B685A6D01325A6501F0F0FC786801F037
:101BC40011FD0837BD4680BD583600204C36002034
:101BD4005036002080B582B000AF78607B6893F8FF
:101BE40024301A4613465B0013449B00094A1A44E6
:101BF4007B680C3319461046FEF7FBFE7B6893F8AE
:101C0400243019460448FEF716FB00BF0837BD46CA
:101C140080BD00BF603600205C36002080B582B0F5
:101C240000AF78607B6893F824301A4613465B0053
:101C340013449B00114A1A447B680C33194610461E
:101C4400FEF733FF7B6893F824301A4613465B0093
:101C540013449B00094A13441846FEF7ACFE03469E
:101C6400002B06D17B6893F8243019460448FEF70C
:101C7400F5FA00BF0837BD4680BD00BF60360020BE
:101C84005C36002080B584B000AF7860396001F024
:101C940099FCF8607B681A6D3B681A607B685A6D22
:101CA4003B685A607B685A693B689A607B6893F822
:101CB40024301A463B68DA607B681A6A3B681A610A
:101CC4007B689A6A3B685A617B68DA6A3B689A6106
:101CD4007B685A683B681A627B681A683B68DA61F9
:101CE4007B689A683B685A62F86801F07BFC3B6841
:101CF40000229A623B68DA693B681B6AD31A9B101C
:101D04001A463B689A6200BF1037BD4680BD00008A
:101D1400F0B595B006AF786007F108032C220021D6
:101D2400184601F079FC00237B631748FFF746F857
:101D340000237B631EE0154A7B6B52F8233007F1C6
:101D4400080211461846FFF79DFFBD68FE683B690F
:101D54007A69B969386BFC6A049403900291019220
:101D6400009333462A46796B0948FFF727F87B6BC3
:101D740001337B63074B1B687A6B9A42DBD30023E6
:101D840018463C37BD46F0BD003C0008E037002053
:101D9400283C00083038002080B588B000AF274BBD
:101DA4009B69264A43F008039361244B9B6903F023
:101DB4000803FB60FB68214B9B69204A43F008033E
:101DC40093611E4B9B6903F00803BB60BB681B4B0C
:101DD4009B691A4A43F008039361184B9B6903F00B
:101DE40008037B607B6820233B6101237B61012323
:101DF400BB610323FB6107F110031946104800F08F
:101E040051FA01233B6107F1100319460C4800F015
:101E140049FA02233B6107F110031946084800F010
:101E240041FA074B20221A61054B01221A61044B27
:101E340002221A6100BF2037BD4680BD0010024057
:101E4400000C014080B400AF034B4FF400121A6140
:101E540000BFBD4680BC7047000C014080B400AF99
:101E6400034B20221A6100BFBD4680BC704700BFEF
:101E7400000C014080B582B000AF00237B6000F00D
:101E840045F87B6818460837BD4680BD80B584B0E8
:101E940000AF78600B467B800023FB607A884FF6A6
:101EA400FF737968044801F034F80346FB60FB686B
:101EB40018461037BD4680BD3438002080B582B046
:101EC40000AF78604FF47A7301227968044801F016
:101ED40020F87B681B7818460837BD4680BD00BFD4
:101EE4003438002080B582B000AF78604FF47A7344
:101EF40001227968044801F09EF87B681B78184633
:101F04000837BD4680BD00BF3438002080B500AF1F
:101F14000D4B0E4A1A600C4B4FF4E1325A600A4BD7
:101F240000229A60084B0022DA60074B00221A61F3
:101F3400054B00229A61044B0C225A61024800F0BE
:101F44009BFF00BF80BD00BF343800200038014033
:101F540080B58AB000AF7860204B9B691F4A43F478
:101F6400804393611D4B9B6903F480437B617B69D0
:101F74001A4B9B69194A43F004039361174B9B69FD
:101F840003F004033B613B69144B9B69134A43F020
:101F940004039361114B9B6903F00403FB60FB682A
:101FA4004FF40073BB610223FB6101233B620323F3
:101FB4007B6207F118031946094800F073F94FF4DE
:101FC4008063BB610023FB6107F1180319460448D1
:101FD40000F068F900BF2837BD4680BD00100240FC
:101FE4000008014080B500AF00F00EF8FEF776FD62
:101FF400FFF746FD0346034A136001F0B5FA0023D8
:10200400184680BD5036002080B590B000AF07F16F
:102014002C0300221A605A609A60DA601A613B1D30
:1020240028220021184601F0F7FA01237B604FF4BF
:102034008033BB600023FB6002233B624FF4803398
:102044007B624FF4E013BB623B1D184600F0BEFAFE
:102054000346002B00D0FEE70F23FB6202233B6301
:1020640000237B630023FB634FF48063BB6307F1AE
:102074002C030221184600F02BFD0346002B00D050
:10208400FEE700BF4037BD4680BD000080B584B088
:1020940000AF786001F096FAF860FFF77DFE0C213E
:1020A4000F48FEF725FB01210E48FEF787FEF8686E
:1020B40001F098FA0C4B1B6801330B4A13600B4B6D
:1020C40000221A60FFF7BEFE6420FEF7E3FB074B15
:1020D40001221A60FFF7C2FE6420FEF7DBFBE9E78A
:1020E400643C0008743C00086069002064690020B6
:1020F40080B582B000AF78600348FEF75FFE00BF92
:102104000837BD4680BD00BF903C000880B582B052
:1021140000AF78600348FEF751FE00BF0837BD46A4
:1021240080BD00BFA43C000880B584B004AF002388
:1021340003934FF480530293134B019300230093B2
:102144000023124A12491348FFF7CEFB642302937B
:102154004FF480530193104B009300230F4A10490E
:102164001048FFF77BFAC82302934FF4805301937E
:102174000D4B009300230D4A0D490E48FFF76EFAEC
:1021840000BFBD4680BD00BF60390020912000081B
:10219400F0000020B83C000860490020F520000849
:1021A40078380020C43C0008605900201121000840
:1021B400EC380020D03C000880B400AF00BFBD461E
:1021C40080BC704780B400AFFEE780B400AFFEE788
:1021D40080B400AFFEE780B400AFFEE780B400AF88
:1021E40000BFBD4680BC704780B400AF00BFBD4691
:1021F40080BC704780B400AF154B1B68144A43F091
:1022040001031360124B5A681149124B13404B607F
:102214000F4B1B680E4A23F0847323F4803313603E
:102224000B4B1B680A4A23F480231360084B5B683A
:10223400074A23F4FE035360054B4FF41F029A60D0
:10224400054B4FF000629A6000BFBD4680BC7047EA
:10225400001002400000FFF800ED00E0002103E060
:102264000A4B5B584350043109480A4B42189A42BE
:10227400F6D3094A02E0002342F8043B074B9A4292
:10228400F9D3FFF7B7FFFFF7ADFE7047043E000830
:1022940000000020F000002064010020706900208C
:1022A400FEE7000080B48BB000AF78603960002393
:1022B4007B6200233B6279E101227B6A02FA03F329
:1022C400FB613B681B68FA691340BB61BA69FB692F
:1022D4009A4240F068813B685B68964A93425ED0BC
:1022E400944A934275D8944A934258D0924A93425E
:1022F4006FD8924A934252D0904A934269D8904AF6
:1023040093424CD08E4A934263D88E4A934246D02D
:102314008C4A93425DD8122B2AD8122B59D801A289
:1023240052F823F0A32300087D2300088F2300081C
:10233400D1230008D7230008D7230008D723000897
:10234400D7230008D7230008D7230008D723000881
:10235400D7230008D7230008D7230008D723000871
:10236400D7230008D72300088523000899230008F1
:10237400754A934213D02CE03B68DB683B6229E04A
:102384003B68DB6804333B6224E03B68DB6808336A
:102394003B621FE03B68DB680C333B621AE03B683E
:1023A4009B68002B02D104233B6213E03B689B68CB
:1023B400012B05D108233B627B68FA691A6109E0A5
:1023C40008233B627B68FA695A6103E000233B629D
:1023D40000E000BFBB69FF2B01D87B6801E07B688C
:1023E40004337B61BB69FF2B02D87B6A9B0002E04C
:1023F4007B6A083B9B003B617B691A680F213B6940
:1024040001FA03F3DB431A40396A3B6901FA03F327
:102414001A437B691A603B685B6803F08053002BA6
:1024240000F0C180494B9B69484A43F00103936122
:10243400464B9B6903F00103BB60BB68444A7B6A5B
:102444009B08023352F82330FB607B6A03F00303DA
:102454009B000F2202FA03F3DB43FA681340FB608C
:102464007B683C4A93421FD07B683B4A934219D015
:102474007B683A4A934213D07B68394A93420DD021
:102484007B68384A934207D07B68374A934201D12C
:1024940005230AE0062308E0042306E0032304E0FE
:1024A400022302E0012300E000237A6A02F003021F
:1024B40092009340FA681343FB6025497B6A9B08AA
:1024C4000233FA6841F823203B685B6803F48033E5
:1024D400002B06D0254B1A682449BB6913430B60B3
:1024E40006E0224B1A68BB69DB43204913400B60AA
:1024F4003B685B6803F40033002B06D01B4B5A681F
:102504001A49BB6913434B6006E0184B5A68BB6910
:10251400DB43164913404B603B685B6803F480134C
:10252400002B25D0114B9A681049BB6913438B606B
:1025340025E000BF0000321000003110000022101E
:1025440000002110000012100000111000100240C1
:102554000000014000080140000C0140001001404F
:102564000014014000180140001C01400004014017
:10257400154B9A68BB69DB43134913408B603B6876
:102584005B6803F40013002B06D00F4BDA680E4986
:10259400BB691343CB6006E00B4BDA68BB69DB43D2
:1025A40009491340CB607B6A01337B623B681A683C
:1025B4007B6A22FA03F3002B7FF47EAE00BF00BFD8
:1025C4002C37BD4680BC70470004014080B586B0FE
:1025D40000AF78607B68002B01D1012372E27B6835
:1025E4001B6803F00103002B00F08780924B5B68AB
:1025F40003F00C03042B0CD08F4B5B6803F00C032B
:10260400082B12D18C4B5B6803F48033B3F5803F05
:102614000BD1894B1B6803F40033002B6CD07B680F
:102624005B68002B68D101234CE27B685B68B3F5DF
:10263400803F06D1804B1B687F4A43F4803313608C
:102644002EE07B685B68002B0CD17B4B1B687A4ABD
:1026540023F480331360784B1B68774A23F4802378
:1026640013601DE07B685B68B3F5A02F0CD1724B3F
:102674001B68714A43F4802313606F4B1B686E4AD6
:1026840043F4803313600BE06B4B1B686A4A23F4FA
:1026940080331360684B1B68674A23F480231360FC
:1026A4007B685B68002B13D000F0DCFB386108E02A
:1026B40000F0D8FB02463B69D31A642B01D90323EB
:1026C40000E25D4B1B6803F40033002BF0D014E0F0
:1026D40000F0C8FB386108E000F0C4FB02463B6927
:1026E400D31A642B01D90323ECE1534B1B6803F485
:1026F4000033002BF0D100E000BF7B681B6803F0BF
:102704000203002B63D04C4B5B6803F00C03002BDB
:102714000BD0494B5B6803F00C03082B1CD1464BD0
:102724005B6803F48033002B16D1434B1B6803F022
:102734000203002B05D07B681B69012B01D0012308
:10274400C0E13D4B1B6823F0F8027B685B69DB004A
:10275400394913430B603AE07B681B69002B20D096
:10276400364B01221A6000F07DFB386108E000F06E
:1027740079FB02463B69D31A022B01D90323A1E159
:102784002D4B1B6803F00203002BF0D02A4B1B686F
:1027940023F0F8027B685B69DB00274913430B6075
:1027A40015E0264B00221A6000F05CFB386108E05B
:1027B40000F058FB02463B69D31A022B01D90323CC
:1027C40080E11D4B1B6803F00203002BF0D17B68F2
:1027D4001B6803F00803002B3AD07B689B69002B2D
:1027E40019D0174B01221A6000F03CFB386108E055
:1027F40000F038FB02463B69D31A022B01D90323AC
:1028040060E10D4B5B6A03F00203002BF0D0012062
:1028140000F0DAFA1CE00A4B00221A6000F022FBF6
:1028240038610FE000F01EFB02463B69D31A022B0D
:1028340008D9032346E100BF0010024000004242D1
:1028440080044242924B5B6A03F00203002BE9D1FD
:102854007B681B6803F00403002B00F0A6800023B0
:10286400FB758B4BDB6903F08053002B0DD1884B38
:10287400DB69874A43F08053D361854BDB6903F0FE
:102884008053BB60BB680123FB75824B1B6803F458
:102894008073002B18D17F4B1B687E4A43F48073EE
:1028A400136000F0DFFA386108E000F0DBFA02465A
:1028B4003B69D31A642B01D9032303E1754B1B68CD
:1028C40003F48073002BF0D07B68DB68012B06D106
:1028D4006F4B1B6A6E4A43F0010313622DE07B6861
:1028E400DB68002B0CD16A4B1B6A694A23F0010395
:1028F4001362674B1B6A664A23F0040313621CE0ED
:102904007B68DB68052B0CD1614B1B6A604A43F082
:10291400040313625E4B1B6A5D4A43F001031362B6
:102924000BE05B4B1B6A5A4A23F001031362584BBA
:102934001B6A574A23F0040313627B68DB68002B8D
:1029440015D000F08FFA38610AE000F08BFA0246E5
:102954003B69D31A41F28832934201D90323B1E08F
:102964004B4B1B6A03F00203002BEED014E000F083
:1029740079FA38610AE000F075FA02463B69D31A25
:1029840041F28832934201D903239BE0404B1B6AF6
:1029940003F00203002BEED1FB7D012B05D13C4B50
:1029A400DB693B4A23F08053D3617B68DB69002BEE
:1029B40000F08780364B5B6803F00C03082B61D072
:1029C4007B68DB69022B46D1334B00221A6000F08E
:1029D40049FA386108E000F045FA02463B69D31A27
:1029E400022B01D903236DE0294B1B6803F000730C
:1029F400002BF0D17B681B6AB3F5803F08D1244BD0
:102A04005B6823F400327B689B68214913434B6065
:102A14001F4B5B6823F474127B68196A7B685B6ADA
:102A24000B431B4913434B601B4B01221A6000F0FC
:102A340019FA386108E000F015FA02463B69D31A26
:102A4400022B01D903233DE0114B1B6803F00073F3
:102A5400002BF0D035E0104B00221A6000F002FA8F
:102A6400386108E000F0FEF902463B69D31A022BF4
:102A740001D9032326E0064B1B6803F00073002BE7
:102A8400F0D11EE07B68DB69012B07D1012319E03B
:102A94000010024000700040600042420B4B5B6833
:102AA400FB60FB6803F480327B681B6A9A4206D1A0
:102AB400FB6803F470127B685B6A9A4201D00123BD
:102AC40000E0002318461837BD4680BD00100240C0
:102AD40080B584B000AF786039607B68002B01D189
:102AE4000123D0E06A4B1B6803F007033A689A425B
:102AF40010D9674B1B6823F0070265493B681343F1
:102B04000B60634B1B6803F007033A689A4201D0D9
:102B14000123B8E07B681B6803F00203002B20D07C
:102B24007B681B6803F00403002B05D0594B5B68DA
:102B3400584A43F4E06353607B681B6803F008035E
:102B4400002B05D0534B5B68524A43F460535360E7
:102B5400504B5B6823F0F0027B689B684D4913433C
:102B64004B607B681B6803F00103002B40D07B683B
:102B74005B68012B07D1474B1B6803F40033002B20
:102B840015D101237FE07B685B68022B07D1414BA1
:102B94001B6803F00073002B09D1012373E03D4B44
:102BA4001B6803F00203002B01D101236BE0394BB6
:102BB4005B6823F003027B685B68364913434B6010
:102BC40000F050F9F8600AE000F04CF90246FB68A6
:102BD400D31A41F28832934201D9032353E02D4B97
:102BE4005B6803F00C027B685B689B009A42EBD144
:102BF400274B1B6803F007033A689A4210D2244B10
:102C04001B6823F0070222493B6813430B60204BE7
:102C14001B6803F007033A689A4201D0012332E0AB
:102C24007B681B6803F00403002B08D0194B5B6816
:102C340023F4E0627B68DB68164913434B607B68CE
:102C44001B6803F00803002B09D0124B5B6823F4C4
:102C540060527B681B69DB000E4913434B6000F034
:102C640021F802460B4B5B681B0903F00F030A496A
:102C7400CB5C22FA03F3094A1360094B1B6818461C
:102C840000F0C0F8002318461037BD4680BD00BFD1
:102C94000020024000100240EC3D00080800002023
:102CA4000C00002090B48AB000AF2A4B3C1D0FCB1F
:102CB40084E80F0040F201233B800023FB610023E2
:102CC400BB6100237B6200237B6100233B62224BB8
:102CD4005B68FB61FB6903F00C03042B02D0082B37
:102CE40003D02DE01D4B3B622DE0FB699B0C03F0F0
:102CF4000F0307F12802134413F8243C7B61FB699A
:102D040003F48033002B13D0134B5B685B0C03F08C
:102D1400010307F12802134413F8283CBB617B69C3
:102D24000E4A03FB02F2BB69B2FBF3F37B6204E0DD
:102D34007B690B4A02FB03F37B627B6A3B6202E022
:102D4400064B3B6200BF3B6A18462837BD4690BC21
:102D5400704700BFDC3C00080010024000127A00FB
:102D640000093D0080B400AF024B1B681846BD4605
:102D740080BC70470800002080B500AFFFF7F2FF69
:102D84000246054B5B681B0A03F007030349CB5C4F
:102D940022FA03F3184680BD00100240FC3D0008EF
:102DA40080B500AFFFF7DEFF0246054B5B68DB0A28
:102DB40003F007030349CB5C22FA03F3184680BDF2
:102DC40000100240FC3D000880B485B000AF78607C
:102DD4000A4B1B680A4AA2FB03235B0A7A6802FBBC
:102DE40003F3FB6000BFFB685A1EFA60002BF9D1A5
:102DF40000BF00BF1437BD4680BC704708000020E8
:102E0400D34D621080B582B000AF7860124B1A685F
:102E1400124B1B7819464FF47A73B3FBF1F3B2FBF0
:102E2400F3F3184600F02AFB0346002B01D00123DC
:102E34000EE07B680F2B0AD8002279684FF0FF3030
:102E440000F000FB064A7B681360002300E00123C6
:102E540018460837BD4680BD080000201000002039
:102E64000C00002080B400AF024B1B681846BD461E
:102E740080BC70476869002080B582B000AF78607C
:102E84007B68002B01D101233FE07B6893F83D3040
:102E9400DBB2002B06D17B68002283F83C207868E3
:102EA400FFF756F87B68242283F83D207B681B6873
:102EB400DA687B681B6822F40052DA60786800F0F4
:102EC400A7F97B681B681A697B681B6822F4904227
:102ED4001A617B681B685A697B681B6822F02A02A6
:102EE4005A617B681B68DA687B681B6842F400528D
:102EF400DA607B6800221A647B68202283F83D2014
:102F04007B68202283F83E20002318460837BD46FC
:102F140080BD80B58AB002AFF860B9603B601346EB
:102F2400FB8000237B61FB6893F83D30DBB2202BF0
:102F34007CD1BB68002B02D0FB88002B01D101237C
:102F440075E0FB6893F83C30012B01D102236EE05D
:102F5400FB68012283F83C20FB6800221A64FB68AA
:102F6400212283F83D20FFF77DFF7861FB68FA8812
:102F74009A84FB68FA88DA84FB689B68B3F5805FFF
:102F840008D1FB681B69002B04D10023FB61BB68DB
:102F9400BB6103E0BB68FB610023BB61FB680022EB
:102FA40083F83C202AE03B6800937B69002280215F
:102FB400F86800F0E2F80346002B01D0032336E062
:102FC400FB69002B0BD1BB691B881A46FB681B6885
:102FD400C2F308025A60BB690233BB6107E0FB69B4
:102FE4001A78FB681B685A60FB690133FB61FB6854
:102FF400DB8C9BB2013B9AB2FB68DA84FB68DB8C06
:103004009BB2002BCFD13B6800937B690022402107
:10301400F86800F0B2F80346002B01D0032306E061
:10302400FB68202283F83D20002300E00223184699
:103034002037BD4680BD80B58AB002AFF860B96064
:103044003B601346FB8000237B61FB6893F83E30B2
:10305400DBB2202B40F08C80BB68002B02D0FB88B5
:10306400002B01D1012384E0FB6893F83C30012B51
:1030740001D102237DE0FB68012283F83C20FB6838
:1030840000221A64FB68222283F83E20FB68002297
:103094001A63FFF7E7FE7861FB68FA889A85FB6894
:1030A400FA88DA85FB689B68B3F5805F08D1FB6812
:1030B4001B69002B04D10023FB61BB68BB6103E0E7
:1030C400BB68FB610023BB61FB68002283F83C20E2
:1030D40043E03B6800937B6900222021F86800F0FC
:1030E4004CF80346002B01D0032342E0FB69002B7C
:1030F4000CD1FB681B685B689BB2C3F308039AB2EC
:10310400BB691A80BB690233BB611FE0FB689B6823
:10311400B3F5805F07D0FB689B68002B0AD1FB687E
:103124001B69002B06D1FB681B685B68DAB2FB697C
:103134001A7008E0FB681B685B68DBB203F07F036E
:10314400DAB2FB691A70FB690133FB61FB68DB8D42
:103154009BB2013B9AB2FB68DA85FB68DB8D9BB2BC
:10316400002BB6D1FB68202283F83E20002300E028
:10317400022318462037BD4680BD80B584B000AF19
:10318400F860B9603B601346FB712CE0BB69B3F196
:10319400FF3F28D0BB69002B07D0FFF763FE024630
:1031A4003B68D31ABA699A421DD2FB681B68DA6875
:1031B400FB681B6822F4D072DA60FB681B685A69EA
:1031C400FB681B6822F001025A61FB68202283F825
:1031D4003D20FB68202283F83E20FB68002283F810
:1031E4003C2003230FE0FB681B681A68BB6813408C
:1031F400BA689A420CBF01230023DBB21A46FB795A
:103204009A42C3D0002318461037BD4680BD000043
:1032140080B584B000AF78607B681B681B6923F4B9
:1032240040517B68DA687B681B680A431A617B68D3
:103234009A687B681B691A437B685B691343BB60AC
:103244007B681B68DB6823F4B05323F00C037A68B3
:103254001268B9680B43D3607B681B685B6923F40D
:1032640040717B689A697B681B680A435A617B6872
:103274001B682C4A934203D1FFF792FDF86002E0E9
:10328400FFF77AFDF860FA6813469B0013449A002E
:103294001A447B685B689B00B2FBF3F3224AA2FBEF
:1032A40003235B091901FA6813469B0013449A002F
:1032B4001A447B685B689B00B2FBF3F21A4BA3FBD6
:1032C40002035B09642000FB03F3D31A1B013233AE
:1032D400154AA2FB03235B0903F0F0031944FA68BF
:1032E40013469B0013449A001A447B685B689B0056
:1032F400B2FBF3F20C4BA3FB02035B09642000FB5B
:1033040003F3D31A1B013233074AA2FB03235B09DD
:1033140003F00F027B681B680A449A6000BF1037F1
:10332400BD4680BD003801401F85EB5180B400AF1D
:10333400044BDB681B0A03F007031846BD4680BC38
:10334400704700BF00ED00E080B483B000AF0346D7
:103354003960FB7197F90730002B0ADB3B68DAB25E
:103364000C4997F907301201D2B20B4483F80023B9
:103374000AE03B68DAB20849FB7903F00F03043B27
:103384001201D2B20B441A7600BF0C37BD4680BC82
:10339400704700BF00E100E000ED00E080B489B0B8
:1033A40000AFF860B9607A60FB6803F00703FB6163
:1033B400FB69C3F10703042B28BF0423BB61FB692A
:1033C4000433062B02D9FB69033B00E000237B6135
:1033D4004FF0FF32BB6902FA03F3DA43BB681A40C9
:1033E4007B699A404FF0FF317B6901FA03F3D943BB
:1033F4007B680B40134318462437BD4680BC704796
:1034040080B582B000AF78607B68013BB3F1807F08
:1034140001D301230FE00A4A7B68013B53600F216B
:103424004FF0FF30FFF790FF054B00229A60044BEA
:1034340007221A60002318460837BD4680BD00BF26
:1034440010E000E080B586B000AF0346B9607A6052
:10345400FB7300237B61FFF769FF78617A68B968C1
:103464007869FFF79BFF024697F90F30114618461B
:10347400FFF76AFF00BF1837BD4680BD80B582B034
:1034840000AF78607868FFF7BBFF0346184608373B
:10349400BD4680BD80B483B000AF03463960FB7184
:1034A40097F90730002B0ADB3B68DAB20C4997F92D
:1034B40007301201D2B20B4483F800230AE03B68C0
:1034C400DAB20849FB7903F00F03043B1201D2B2CC
:1034D4000B441A7600BF0C37BD4680BC704700BF52
:1034E40000E100E000ED00E080B400AFBFF34F8FD7
:1034F40000BF064BDB6803F4E0620449044B13434A
:10350400CB60BFF34F8F00BF00BFFDE700ED00E0CD
:103514000400FA0580B500AFFDF7F0FA00BF80BDE6
:1035240080B582B000AF78600C4B1B687A6802FBF0
:1035340003F30B4A0B49A1FB03139B0953600F21AF
:103544004FF0FF30FFF7A6FF054B00229A60044BB3
:1035540007221A6000BF0837BD4680BD080000205E
:1035640010E000E0D34D621080B483B000AF0023BC
:103574007B607B6883F3098800BF064BFF221A70C7
:10358400054B4FF080521A6000BF0C37BD4680BC1B
:10359400704700BF22ED00E004ED00E080B400AF0E
:1035A400064B1B680133054A1360054B4FF08052EC
:1035B4001A6000BFBD4680BC704700BF6C69002024
:1035C40004ED00E080B483B000AFEFF310833B6000
:1035D4003B687B6072B600BF7B6818460C37BD46FB
:1035E40080BC704780B485B000AF78607B68FB60B6
:1035F400FB6883F3108800BF00BF1437BD4680BC4E
:10360400704780B582B000AF01237B607B6883F391
:10361400138800BFFFF768FF03008218934200D1AC
:08362400704719700133F9E74A
:10362C005B6361745F737472636D705D2061742091
:10363C006C65617374206F6E6520617267206973AD
:10364C00204E554C4C210D0A000000004E554C4CA0
:10365C0020213D2064657374000000002F686F6D9D
:10366C00652F6D696F2F4465736B746F702F636179
:10367C00746F732F776F726B73706163652F6361F7
:10368C00744F532F7372632F6361744F532F737284
:10369C00632F737570706F72742F6361745F7375C1
:1036AC0070706F72742E630025733A256420257335
:1036BC0020617373657274206661696C6564202186
:1036CC000D0A00004E554C4C20213D2073726300B6
:1036DC006465737400000000737263005B62737046
:1036EC005D207561727420696E69742073756363F3
:1036FC0065656421210D0A0074696D65725F7461E2
:10370C00736B000063757272656E74207469636B01
:10371C00733A2025640D0A006765745F7469636BE6
:10372C00730000007072696E74207469636B7300AF
:10373C005B6361745F737464696F5D206E6F206D81
:10374C0061746368206572726F7220747970652081
:10375C0021210D0A000000005B6361745F737464C7
:10376C00696F3A6361745F7072696E745D747970BD
:10377C0065206E6F7420737570706F7274202121C8
:10378C000D0A0000082008006261636B73706163AE
:10379C00650000000D0A00006361743E000000002B
:1037AC00656E74657200000025326420257309254E
:1037BC00730D0A0068656C70000000007072696E11
:1037CC00742068656C70206D736700007465737489
:1037DC0020636D642066756E632069732063616C71
:1037EC006C65640D0A000000746573745F636D642E
:1037FC0000000000666F7220746573740000000096
:10380C00636D64322069732063616C6C65640D0AAE
:10381C0000000000636D64320000000061726700FC
:10382C002F686F6D652F6D696F2F4465736B746FA7
:10383C00702F6361746F732F776F726B737061632A
:10384C00652F6361744F532F7372632F6361744FD1
:10385C00532F7372632F636F6D706F6E656E74731D
:10386C002F6361745F7368656C6C2F6361745F7335
:10387C0068656C6C5F636D64732E630025733A2509
:10388C006420257320617373657274206661696CA2
:10389C00656420210D0A00005B646F5F74657374AE
:1038AC005F617267735D206E6F206172670D0A0035
:1038BC006172675B25645D3A2025730D0A00000078
:1038CC00746573745F617267730000007465737460
:1038DC0020617267730000005B646F5F74657374C2
:1038EC005F61746F695D2075736167653A207465FB
:1038FC0073745F61746F69205B535452494E475D1A
:10390C000D0A00006172675B25645D3A2025732DFA
:10391C003E00000025640D0A0000000074657374FD
:10392C005F61746F69000000746573742061746F5B
:10393C00690000001B5B324A1B5B303B30480000C7
:10394C00636C656172000000636C65617220736367
:10395C007265656E000000007265736574696E6750
:10396C0020636869702E2E2E0D0A00007265736537
:10397C0074000000726573657420636869700000E0
:10398C005B6361745F7368656C6C5F706F72743AC3
:10399C0025645D206361745F7368656C6C5F696E30
:1039AC006974206661696C210D0A00007368656C8E
:1039BC006C5F7461736B00005B6361745F7368654B
:1039CC006C6C5F706F72745D206361745F7368659B
:1039DC006C6C20696E6974207375636365737320F6
:1039EC000D0A00007368656C6C5F696E737400007F
:1039FC002F686F6D652F6D696F2F4465736B746FD6
:103A0C00702F6361746F732F776F726B7370616358
:103A1C00652F6361744F532F7372632F6361744FFF
:103A2C00532F7372632F636F6D706F6E656E74734B
:103A3C002F6361745F7368656C6C2F6361745F7363
:103A4C0068656C6C2E63000025733A256420257321
:103A5C0020617373657274206661696C65642021E2
:103A6C000D0A00005F5F5F5F5F5F5F5F5F5F5F5FBF
:103A7C005F5F5F5F5F5F5F5F5F5F5F5F5F5F5F5F4A
:103A8C005F5F5F5F5F5F5F5F5F0D0A20202020201C
:103A9C005F5F5F2020202020205F2020205F5F5F61
:103AAC00205F20202020202020205F205F2020204D
:103ABC000D0A202020202F205F5F7C5F5F205F7C21
:103ACC00207C5F2F205F5F7C207C5F20205F5F5F0E
:103ADC007C207C207C20200D0A2020207C20285F4C
:103AEC005F2F205F60207C20205F5C5F5F205C206C
:103AFC0027205C2F202D5F29207C207C0D0A202084
:103B0C0020205C5F5F5F5C5F5F2C5F7C5C5F5F7C39
:103B1C005F5F5F2F5F7C7C5F5C5F5F5F7C5F7C5F68
:103B2C007C200D0A205F5F5F5F5F5F5F5F5F5F5FA1
:103B3C005F5F5F5F5F5F5F5F5F5F5F5F5F5F5F5F89
:103B4C005F5F5F5F5F5F5F5F5F5F0D0A0D0A204322
:103B5C0061745368656C6C2076312E302E30206386
:103B6C0072656174656420627920616D6F69677537
:103B7C0073200D0A2074797065202268656C7022A0
:103B8C0020746F20676574206D6F726520696E6696
:103B9C006F0D0A0D0A0000006361743E0000000006
:103BAC0064617461000000005B6361746F735D207D
:103BBC006F766572206D617820617267206E756D0D
:103BCC003A256420210D0A005B6361746F735D20DC
:103BDC00636D64202573206E6F7420666F756E6440
:103BEC0020210D0A0000000069646C655F7461732C
:103BFC006B0000006E6F096E616D65090973636877
:103C0C0065640964656C6179097072696F09737414
:103C1C0061746509737461636B0D0A0025643A095C
:103C2C00257309256409256409256409256409257A
:103C3C00642F25640D0A00007461736B5F737461EB
:103C4C00740000007072696E7420616C6C20746179
:103C5C00736B20696E666F0074657374696E672E82
:103C6C002E2E0D0A00000000256420746573746903
:103C7C006E67204341545F5359535F5052494E5421
:103C8C00460D0A007461736B322072756E6E696E2C
:103C9C00672E2E2E0D0A00007461736B3320727523
:103CAC006E6E696E672E2E2E0D0A00007461736B9A
:103CBC00315F7461736B00007461736B325F6564A8
:103CCC00660000007461736B335F6564660000000E
:103CDC0002030405060708090A0B0C0D0E0F101041
:103CEC00FF000100020001000300010002000100BE
:103CFC0004000100020001000300010002000100A9
:103D0C000500010002000100030001000200010097
:103D1C000400010002000100030001000200010088
:103D2C000600010002000100030001000200010076
:103D3C000400010002000100030001000200010068
:103D4C000500010002000100030001000200010057
:103D5C000400010002000100030001000200010048
:103D6C000700010002000100030001000200010035
:103D7C000400010002000100030001000200010028
:103D8C000500010002000100030001000200010017
:103D9C000400010002000100030001000200010008
:103DAC0006000100020001000300010002000100F6
:103DBC0004000100020001000300010002000100E8
:103DCC0005000100020001000300010002000100D7
:103DDC0004000100020001000300010002000100C8
:103DEC00000000000000000001020304060708099F
:083DFC000000000001020304B5
:103E04003C3700086437000800A24A041000000090
:103E140001000000000000002437000830370008CB
:103E24004909000800000000010000009437000860
:103E340000000008D90E0008000000000100000086
:103E4400AC3700080000000D110F0008000000004E
:103E540000000000C0370008C8370008610F0008E0
:103E64000000000000000000F437000800380008DB
:103E7400B50F000800000000000000002038000812
:103E840000380008D10F0008000000000000000006
:103E9400CC380008D8380008ED0F000800000000F6
:103EA4000000000028390008343900086D100008AB
:103EB40000000000000000004C39000854390008DC
:103EC400F510000800000000000000007839000828
:103ED40080390008111100080000000000000000F3
:103EE400443C0008503C0008151D00080000000078
:103EF40000000000000000000000000000000000BE
:103F040000000000000000000000000000000000AD
:103F1400000000000000000000000000000000009D
:103F2400000000000000000000000000000000008D
:103F3400000000000000000000000000000000007D
:103F4400000000000000000000000000000000006D
:103F5400000000000000000000000000000000005D
:043F64000000000059
:04000005080022616C
:00000001FF
